{
  "contractName": "CarSale",
  "abi": [
    {
      "inputs": [],
      "payable": false,
      "stateMutability": "nonpayable",
      "type": "constructor"
    },
    {
      "anonymous": false,
      "inputs": [
        {
          "indexed": true,
          "internalType": "uint256",
          "name": "priceInWei",
          "type": "uint256"
        },
        {
          "indexed": false,
          "internalType": "address",
          "name": "id",
          "type": "address"
        },
        {
          "indexed": false,
          "internalType": "uint256",
          "name": "quantity",
          "type": "uint256"
        }
      ],
      "name": "AddInventory",
      "type": "event"
    },
    {
      "anonymous": false,
      "inputs": [
        {
          "indexed": false,
          "internalType": "address",
          "name": "id",
          "type": "address"
        },
        {
          "indexed": false,
          "internalType": "uint256",
          "name": "quantity",
          "type": "uint256"
        }
      ],
      "name": "addSale",
      "type": "event"
    },
    {
      "constant": true,
      "inputs": [
        {
          "internalType": "address",
          "name": "",
          "type": "address"
        }
      ],
      "name": "inventories",
      "outputs": [
        {
          "internalType": "uint256",
          "name": "priceInWei",
          "type": "uint256"
        },
        {
          "internalType": "address",
          "name": "id",
          "type": "address"
        },
        {
          "internalType": "uint256",
          "name": "quantity",
          "type": "uint256"
        }
      ],
      "payable": false,
      "stateMutability": "view",
      "type": "function"
    },
    {
      "constant": true,
      "inputs": [],
      "name": "owner",
      "outputs": [
        {
          "internalType": "address",
          "name": "",
          "type": "address"
        }
      ],
      "payable": false,
      "stateMutability": "view",
      "type": "function"
    },
    {
      "constant": false,
      "inputs": [
        {
          "internalType": "address",
          "name": "carAddr",
          "type": "address"
        },
        {
          "internalType": "uint256",
          "name": "carPriceInWei",
          "type": "uint256"
        },
        {
          "internalType": "uint256",
          "name": "quantity",
          "type": "uint256"
        }
      ],
      "name": "addCarInventory",
      "outputs": [
        {
          "internalType": "bool",
          "name": "success",
          "type": "bool"
        }
      ],
      "payable": false,
      "stateMutability": "nonpayable",
      "type": "function"
    },
    {
      "constant": false,
      "inputs": [
        {
          "internalType": "address",
          "name": "carAddr",
          "type": "address"
        },
        {
          "internalType": "uint256",
          "name": "quantity",
          "type": "uint256"
        }
      ],
      "name": "addCarSale",
      "outputs": [
        {
          "internalType": "bool",
          "name": "success",
          "type": "bool"
        }
      ],
      "payable": false,
      "stateMutability": "nonpayable",
      "type": "function"
    }
  ],
  "bytecode": "0x608060405234801561001057600080fd5b50336000806101000a81548173ffffffffffffffffffffffffffffffffffffffff021916908373ffffffffffffffffffffffffffffffffffffffff1602179055506107b8806100606000396000f3fe608060405234801561001057600080fd5b506004361061004c5760003560e01c80632f16cd3414610051578063698aa65c146100c15780637a10ca4d146101535780638da5cb5b146101b9575b600080fd5b6100a76004803603606081101561006757600080fd5b81019080803573ffffffffffffffffffffffffffffffffffffffff1690602001909291908035906020019092919080359060200190929190505050610203565b604051808215151515815260200191505060405180910390f35b610103600480360360208110156100d757600080fd5b81019080803573ffffffffffffffffffffffffffffffffffffffff169060200190929190505050610528565b604051808481526020018373ffffffffffffffffffffffffffffffffffffffff1673ffffffffffffffffffffffffffffffffffffffff168152602001828152602001935050505060405180910390f35b61019f6004803603604081101561016957600080fd5b81019080803573ffffffffffffffffffffffffffffffffffffffff16906020019092919080359060200190929190505050610572565b604051808215151515815260200191505060405180910390f35b6101c161072b565b604051808273ffffffffffffffffffffffffffffffffffffffff1673ffffffffffffffffffffffffffffffffffffffff16815260200191505060405180910390f35b60008060009054906101000a900473ffffffffffffffffffffffffffffffffffffffff1673ffffffffffffffffffffffffffffffffffffffff163373ffffffffffffffffffffffffffffffffffffffff161461025e57600080fd5b600073ffffffffffffffffffffffffffffffffffffffff168473ffffffffffffffffffffffffffffffffffffffff161415801561029b5750600083115b80156102a75750600082115b6102b057600080fd5b6000600160008673ffffffffffffffffffffffffffffffffffffffff1673ffffffffffffffffffffffffffffffffffffffff1681526020019081526020016000206002015411156103e25761035082600160008773ffffffffffffffffffffffffffffffffffffffff1673ffffffffffffffffffffffffffffffffffffffff1681526020019081526020016000206002015461075090919063ffffffff16565b600160008673ffffffffffffffffffffffffffffffffffffffff1673ffffffffffffffffffffffffffffffffffffffff1681526020019081526020016000206002018190555082600160008673ffffffffffffffffffffffffffffffffffffffff1673ffffffffffffffffffffffffffffffffffffffff168152602001908152602001600020600001819055506104b1565b60405180606001604052808481526020018573ffffffffffffffffffffffffffffffffffffffff16815260200183815250600160008673ffffffffffffffffffffffffffffffffffffffff1673ffffffffffffffffffffffffffffffffffffffff1681526020019081526020016000206000820151816000015560208201518160010160006101000a81548173ffffffffffffffffffffffffffffffffffffffff021916908373ffffffffffffffffffffffffffffffffffffffff160217905550604082015181600201559050505b827fc0b4ae50615c6fc43d116cbf8e2d560ec97e5609515316ccdf76e0380c13014f8584604051808373ffffffffffffffffffffffffffffffffffffffff1673ffffffffffffffffffffffffffffffffffffffff1681526020018281526020019250505060405180910390a2600190509392505050565b60016020528060005260406000206000915090508060000154908060010160009054906101000a900473ffffffffffffffffffffffffffffffffffffffff16908060020154905083565b60008060009054906101000a900473ffffffffffffffffffffffffffffffffffffffff1673ffffffffffffffffffffffffffffffffffffffff163373ffffffffffffffffffffffffffffffffffffffff16146105cd57600080fd5b81600160008573ffffffffffffffffffffffffffffffffffffffff1673ffffffffffffffffffffffffffffffffffffffff168152602001908152602001600020600201541161061b57600080fd5b61067082600160008673ffffffffffffffffffffffffffffffffffffffff1673ffffffffffffffffffffffffffffffffffffffff1681526020019081526020016000206002015461076c90919063ffffffff16565b600160008573ffffffffffffffffffffffffffffffffffffffff1673ffffffffffffffffffffffffffffffffffffffff168152602001908152602001600020600201819055507fefecab8ab8c9e99804b1fc5dbfcce98b40aac6195f1f671bacbb6988be723f628383604051808373ffffffffffffffffffffffffffffffffffffffff1673ffffffffffffffffffffffffffffffffffffffff1681526020018281526020019250505060405180910390a16001905092915050565b6000809054906101000a900473ffffffffffffffffffffffffffffffffffffffff1681565b60008082840190508381101561076257fe5b8091505092915050565b60008282111561077857fe5b81830390509291505056fea265627a7a72315820813a7a87f58f4192ccf8a048ccba42c45c2eb7f6d9323581d4cca7663933920564736f6c63430005100032",
  "source": "pragma solidity 0.5.16;\r\nimport {SafeMath} from \"./SafeMath.sol\";\r\n\r\ncontract CarSale {\r\n    using SafeMath for uint256;\r\n\r\n    /*\r\n     * Storage\r\n     */\r\n    struct CarEntity {\r\n        uint256 priceInWei;\r\n        address id;\r\n        uint256 quantity;\r\n    }\r\n\r\n    address public owner;\r\n    mapping(address => CarEntity) public inventories;\r\n\r\n    /*\r\n     * Events\r\n     */\r\n    event AddInventory(\r\n        uint256 indexed priceInWei,\r\n        address id,\r\n        uint256 quantity\r\n    );\r\n    event addSale(\r\n        address id,\r\n        uint256 quantity\r\n    );\r\n    /*\r\n     * Modifier\r\n     */\r\n    modifier onlyOwner() {\r\n        require(msg.sender == owner);\r\n        _;\r\n    }\r\n\r\n    /*\r\n     * Constructor\r\n     */\r\n    constructor() public {\r\n        owner = msg.sender;\r\n    }\r\n\r\n    /*\r\n     * Public Functions\r\n     */\r\n    function addCarInventory(\r\n        address carAddr,\r\n        uint256 carPriceInWei,\r\n        uint256 quantity\r\n    ) public onlyOwner() returns (bool success) {\r\n        require(carAddr != address(0) && carPriceInWei > 0 && quantity > 0);\r\n\r\n        // existing car\r\n        if (inventories[carAddr].quantity > 0) {\r\n            inventories[carAddr].quantity = inventories[carAddr].quantity.add(\r\n                quantity\r\n            );\r\n            inventories[carAddr].priceInWei = carPriceInWei;\r\n        } else {\r\n            inventories[carAddr] = CarEntity({\r\n                priceInWei: carPriceInWei, \r\n                id:carAddr, \r\n               quantity: quantity\r\n            });\r\n        }\r\n\r\n        emit AddInventory(carPriceInWei, carAddr, quantity);\r\n        return true;\r\n    }\r\n\r\n    /*\r\n     * Public Functions\r\n     */\r\n    function addCarSale(address carAddr, uint256 quantity)\r\n        public\r\n        onlyOwner()\r\n        returns (bool success)\r\n    {\r\n        require(inventories[carAddr].quantity > quantity);\r\n        inventories[carAddr].quantity = inventories[carAddr].quantity.sub(\r\n            quantity\r\n        );\r\n        \r\n        emit addSale(carAddr, quantity);\r\n        return true;\r\n    }\r\n}\r\n",
  "sourcePath": "E:/2_Devs/career/carsale-contract/contracts/CarSale.sol",
  "compiler": {
    "name": "solc",
    "version": "0.5.16+commit.9c3226ce.Emscripten.clang"
  },
  "schemaVersion": "3.3.4",
  "updatedAt": "2021-03-20T14:15:37.177Z",
  "devdoc": {
    "methods": {}
  },
  "userdoc": {
    "methods": {}
  }
}